:100000000C946F000C9497000C9497000C9497003C
:100010000C9497000C9497000C9497000C94970004
:100020000C9497000C9497000C9497000C949700F4
:100030000C9497000C9497000C9497000C949700E4
:100040000C9459050C9497000C9427050C94010509
:100050000C9497000C9497000C9497000C949700C4
:100060000C94A3050C949700084AD73B3BCE016E35
:1000700084BCBFFDC12F3D6C74319ABD56833DDAFF
:100080003D00C77F11BED9E4BB4C3E916BAAAABE0E
:10009000000000803F0000000000250028002B0029
:1000A000040404040404040402020202020203031E
:1000B0000303030301020408102040800102040826
:1000C00010200102040810200000000800020100B6
:1000D000000304070000000000000000D106112406
:1000E0001FBECFEFD8E0DEBFCDBF11E0A0E0B1E092
:1000F000EAE2F8E102C005900D92AC32B107D9F7FF
:1001000022E0ACE2B1E001C01D92A639B207E1F7EE
:1001100010E0CFE6D0E004C02197FE010E9427093D
:10012000CE36D107C9F70E9416070C94130C0C9415
:100130000000382F2091E8019091E701213208F06A
:1001400049C08091C4018111FCCF42E04093C401B9
:100150003093C3013FEF3093C2011092C10120934D
:10016000C001A7ECB1E040EA51E0FA013E2F341B98
:10017000321718F43D913193F9CF10929F012091DD
:100180009F01990F922B90939F0190919E01913026
:1001900061F410929E0190919F019093BB00909109
:1001A000BC0093FDF8CF95EC01C095EE9093BC0098
:1001B0009091C4019230E1F39091C2019F3F79F098
:1001C0008091C201803241F08091C201803331F0D0
:1001D00084E005C081E003C082E001C083E01092AA
:1001E000C6011092E8011092C501089590E0FC014B
:1001F000E853FF4F2491FC01EC54FF4F3491FC0174
:10020000E056FF4FE491EE23B1F1222339F1233080
:1002100091F038F42130A9F0223001F584B58F7DBA
:1002200012C0273091F02830A1F02430B9F4809129
:1002300080008F7D03C0809180008F778093800045
:100240000DC084B58F7784BD09C08091B0008F77D1
:1002500003C08091B0008F7D8093B000F0E0EE0F7E
:10026000FF1FEA56FF4FA591B4918FB7F894EC9118
:100270003E2B3C938FBF0895E091E901F091EA0194
:100280000190F081E02D682F89EE91E00994809132
:100290007C0190E020917D01821B91090895CF920D
:1002A000DF92EF92FF920F931F93CF93DF936C0136
:1002B0007A018B01C0E0D0E0CE15DF0589F0D801CE
:1002C0006D918D01D601ED91FC910190F081E02DB1
:1002D000C6010995892B11F47E0102C02196ECCF4D
:1002E000C701DF91CF911F910F91FF90EF90DF90A9
:1002F000CF900895FC01918D828D981761F0828DC9
:10030000DF01A80FB11D5D968C91928D9F5F9F7349
:10031000928F90E008958FEF9FEF0895FC01918DEB
:10032000828D981731F0828DE80FF11D858D90E058
:1003300008958FEF9FEF0895FC01918D228D892FF5
:1003400090E0805C9F4F821B91098F7399270895DD
:1003500089EE91E00E949C0121E0892B09F420E0C4
:10036000822F0895FC01848DDF01A80FB11DA35ACF
:10037000BF4F2C91848D90E001968F739927848FC5
:10038000A689B7892C93A089B1898C9180648C93BC
:10039000938D848D981306C00288F389E02D8081A7
:1003A0008F7D80830895EF92FF920F931F93CF93D9
:1003B000DF93EC0181E0888F9B8D8C8D981305C0B5
:1003C000E889F989808185FD24C0F62E0B8D10E027
:1003D0000F5F1F4F0F731127E02E8C8DE8120CC09A
:1003E0000FB607FCFACFE889F989808185FFF5CF40
:1003F000CE010E94B201F1CF8B8DFE01E80FF11DFD
:10040000E35AFF4FF0820B8FEA89FB89808180627B
:1004100007C0EE89FF896083E889F989808180645B
:10042000808381E090E0DF91CF911F910F91FF9049
:10043000EF900895CF93DF93EC01888D8823C9F066
:10044000EA89FB89808185FD05C0A889B9898C91DD
:1004500086FD0FC00FB607FCF5CF808185FFF2CF78
:10046000A889B9898C9185FFEDCFCE010E94B20198
:10047000E7CFDF91CF91089580E090E0892B29F0BC
:100480000E94A80181110C94000008953FB7F894D0
:100490008091780190917901A0917A01B0917B01CE
:1004A00026B5A89B05C02F3F19F00196A11DB11DCF
:1004B0003FBFBA2FA92F982F8827820F911DA11D0A
:1004C000B11DBC01CD0142E0660F771F881F991F47
:1004D0004A95D1F7089585ED8093BC008091BC00CA
:1004E00084FDFCCF1092C401089540914E01262F47
:1004F00030E0240F311D21323105DCF42091C4019C
:100500002430C9F4FC0180E090E0861758F4309163
:100510004E012191DC01A45DBE4FA30FB11D2C93B0
:100520000196F3CF80914E01680F60934E0180E0F9
:10053000089581E0089582E008950895E0917D0195
:1005400080917C01E81730F4F0E0E258FE4F8081A2
:1005500090E008958FEF9FEF089590917D01809135
:100560007C01981750F4E92FF0E0E258FE4F20810B
:1005700030E09F5F90937D0102C02FEF3FEFC901F4
:100580000895CF92DF92EF92FF920F931F93CF9334
:10059000DF937C01262F972F8A018091C501882344
:1005A00091F0C62FD72F6E01C40ED51ECC15DD05D8
:1005B00071F06991D701ED91FC910190F081E02DEE
:1005C000C7010995F3CF642F822F0E947502C801DD
:1005D000DF91CF911F910F91FF90EF90DF90CF901F
:1005E0000895CF93DF931F92CDB7DEB76983209133
:1005F000C5012223D1F02091E801203240F021E012
:1006000030E0FC013383228380E090E015C08091CC
:10061000C601E82FF0E0E953FE4F998190838F5F88
:100620008093C6018093E80105C061E0CE01019688
:100630000E94750281E090E00F90DF91CF910895C4
:10064000CF93C62F91E09093C5019EE19093E7016F
:100650001092C6011092E801682F86E892E00E948D
:10066000F1026C2F86E892E00E94F10281E0CF91C6
:100670000C949900009769F0FC0101900020E9F7C3
:100680003197AF01481B590BBC0189EE91E00C94E6
:100690004F0180E090E008958F929F92AF92BF92B9
:1006A0000F931F93CF93DF93CDB7DEB7A1970FB60C
:1006B000F894DEBF0FBECDBF19A2423008F44AE065
:1006C0008E010F5D1F4F842E912CA12CB12CA50102
:1006D00094010E940509E62FB901CA0101501109D0
:1006E000EA3014F4E05D01C0E95CD801EC93232BFF
:1006F000242B252B61F7C8010E943A03A1960FB65F
:10070000F894DEBF0FBECDBFDF91CF911F910F9147
:10071000BF90AF909F908F9008954F925F926F928D
:100720007F928F929F92AF92BF92CF92DF92EF9281
:10073000FF926B017C01B42E9B01AC010E94090C5D
:10074000882319F080E291E027C026013701E89460
:1007500077F82FEF3FEF4FE75FE7C301B2010E9449
:10076000090C81110DC02FEF3FEF4FE75FE7C30189
:10077000B2010E940C0A18161CF484E291E00CC02D
:100780002FEF3FEF4FE75FE4C701B6010E948B0BED
:10079000181684F488E291E0FF90EF90DF90CF90FC
:1007A000BF90AF909F908F907F906F905F904F9091
:1007B0000C943A032FEF3FEF4FE75FECC701B60110
:1007C0000E940C0A87FDE6CF20E030E0A901C701B6
:1007D000B6010E940C0A87FF09C08DE20E943C010D
:1007E0004C01F7FAF094F7F8F09402C0812C912CA8
:1007F000A12C60E070E080E09FE3AB1441F020E0CA
:1008000030E040E251E40E94110AA394F6CF9B012C
:10081000AC01C701B6010E942E092B013C010E94C8
:10082000830A6B017C010E94B20A9B01AC01C301E7
:10083000B2010E942D092B013C014AE0C701B6011B
:100840000E944C037C01E80CF91CBB2029F08EE2CD
:100850000E943C01E80EF91EDB2CDD2021F120E096
:1008600030E040E251E4C301B2010E94980B2B0139
:100870003C010E94830A4B01A12CB12C4AE0C50126
:10088000B4010E944C03E80EF91EC501B4010E9498
:10089000B20A9B01AC01C301B2010E942D092B01D8
:1008A0003C01DA94DACFC701FF90EF90DF90CF9050
:1008B000BF90AF909F908F907F906F905F904F9080
:1008C00008951F93CF93DF93CDB7DEB72C970FB664
:1008D000F894DEBF0FBECDBF11E01093C5018EE1CD
:1008E0008093E7011092C6011092E80163E086E868
:1008F00092E00E94F10281E00E9499001093C501EC
:100900001092C6011092E8018091C4018111FCCFC0
:1009100081E08093C4018093C3019FEF9093C20153
:100920001092C10195E09093C00180939F01809146
:100930009F018C6380939F0180919E01813061F4BF
:1009400010929E0180919F018093BB008091BC001A
:1009500083FDF8CF85EC01C085EE8093BC008091CB
:10096000C4018130E1F38091C101863018F4809197
:10097000C10101C086E0A0EAB1E02EE731E0F90153
:100980009E2F921B981718F49D919193F9CF109276
:100990007D0180937C01863041F410E086E892E08E
:1009A0000E94AD021F5F1630C9F781E00E949900D6
:1009B0006B8170E0762F66278C81682B4D8150E02B
:1009C000542F44278E81482B298130E0322F222753
:1009D0008A81282B38872F835A8749877C876B87A2
:1009E00038855A857C8580E090E02C960FB6F89487
:1009F000DEBF0FBECDBFDF91CF911F9108950E9442
:100A00000E0C1F920F920FB60F9211242F933F934B
:100A10004F935F936F937F938F939F93AF93BF9306
:100A2000EF93FF9389EE91E00E94B201FF91EF9165
:100A3000BF91AF919F918F917F916F915F914F91F6
:100A40003F912F910F900FBE0F901F9018951F92FE
:100A50000F920FB60F9211242F938F939F93EF93C2
:100A6000FF93E091F901F091FA018081E091FF019B
:100A7000F091000282FD12C09081809102028F5F8E
:100A80008F7320910302821751F0E0910202F0E08F
:100A9000E751FE4F958F8093020201C08081FF9144
:100AA000EF919F918F912F910F900FBE0F901F90FC
:100AB00018951F920F920FB60F9211242F933F9308
:100AC0008F939F93AF93BF93809174019091750121
:100AD000A0917601B09177013091730123E0230F4B
:100AE0002D3720F40196A11DB11D05C026E8230F66
:100AF0000296A11DB11D2093730180937401909300
:100B00007501A0937601B09377018091780190915F
:100B10007901A0917A01B0917B010196A11DB11DCF
:100B20008093780190937901A0937A01B0937B012F
:100B3000BF91AF919F918F913F912F910F900FBED9
:100B40000F901F9018951F920F920FB60F921124BD
:100B50002F933F934F935F936F937F938F939F93C5
:100B6000AF93BF93EF93FF938091B900887F803656
:100B700009F49CC068F5883209F45BC090F48031B8
:100B800009F454C038F4882309F4F6C0883009F415
:100B90004DC0F6C0883109F44CC0803209F45DC004
:100BA000EFC0803409F468C048F4803309F455C0BC
:100BB000883309F0E5C08093C201D8C0803509F4BC
:100BC0004FC0883509F45DC0883409F0D9C0D6C05B
:100BD000883909F4C7C0A8F4883709F467C038F425
:100BE000883609F463C0803709F460C0C9C088380A
:100BF00009F4B8C0803909F45FC0803809F0C0C07A
:100C00005BC0803B09F486C038F4803A09F466C0C2
:100C1000883A09F47FC0B4C0803C09F4A7C0883C7E
:100C200009F4A4C0883B09F48AC0AAC080919F013E
:100C300010C09091C1018091C001981770F5E091AA
:100C4000C10181E08E0F8093C101F0E0E056FE4FBC
:100C500080818093BB0085EC86C08093C2018EC0EA
:100C6000E091C10181E08E0F8093C1018091BB00B2
:100C7000F0E0E056FE4F80839091C1018091C00169
:100C80006EC0E091C10181E08E0F8093C10180911F
:100C9000BB00F0E0E056FE4F80838091C3018111DC
:100CA0006DC081E080939E0184EA61C083E08093FF
:100CB000C40110927201CFCF80917201803208F08E
:100CC00051C0E091720181E08E0F8093720180919A
:100CD000BB00F0E0EE5AFE4F8083BDCF85EC8093E1
:100CE000BC001092C40180917201803230F4E09116
:100CF0007201F0E0EE5AFE4F10826091720170E0D6
:100D0000E0915001F091510182E591E00995109236
:100D1000720136C084E08093C40110924F0110929A
:100D20004E01E0914C01F0914D01099580914E01E9
:100D3000811105C081E080934E0110922C01E09159
:100D40004F0181E08E0F80934F01F0E0E45DFE4F94
:100D500080818093BB0090914F0180914E01981744
:100D600008F479CF85E88093BC000AC085EC8093B5
:100D7000BC001092C40104C01092C2010E946B0218
:100D8000FF91EF91BF91AF919F918F917F916F9163
:100D90005F914F913F912F910F900FBE0F901F9039
:100DA0001895E9EEF1E01382128288EE93E0A0E05C
:100DB000B0E084839583A683B78324E031E0318358
:100DC000208325EC30E03587248724EC30E037871A
:100DD000268720EC30E0318B208B21EC30E0338B08
:100DE000228B22EC30E0358B248B26EC30E0378BE5
:100DF000268B118E128E138E148EE6E8F2E013828B
:100E0000128284839583A683B78384E191E09183E2
:100E1000808380E090E0A0E8BFE38093920290930B
:100E20009302A0939402B09395020895CF93DF9319
:100E3000CDB7DEB760970FB6F894DEBF0FBECDBF5B
:100E4000789484B5826084BD84B5816084BD85B5A5
:100E5000826085BD85B5816085BD80916E008160B1
:100E600080936E0010928100809181008260809357
:100E70008100809181008160809381008091800059
:100E80008160809380008091B10084608093B10084
:100E90008091B00081608093B00080917A0084607E
:100EA00080937A0080917A00826080937A008091AA
:100EB0007A00816080937A0080917A0080688093C4
:100EC0007A001092C100E091F901F091FA0182E0FC
:100ED0008083E091F501F091F6011082E091F70135
:100EE000F091F80180E1808310920102E091FD0110
:100EF000F091FE0186E08083E091FB01F091FC011E
:100F0000808180618083E091FB01F091FC01808110
:100F100088608083E091FB01F091FC018081806812
:100F20008083E091FB01F091FC0180818F7D8083C3
:100F300010927D0110927C011092C6011092E8017E
:100F40001092C40181E08093C30110929E0182E15E
:100F50000E94F60083E10E94F6008091B9008E7F26
:100F60008093B9008091B9008D7F8093B90088E4A7
:100F70008093B80085E48093BC008FE195E8ABE6F0
:100F8000BFE38093920290939302A0939402B09354
:100F9000950260E270E081E090E00E94200360E052
:100FA00070E082E090E00E9420030E9461040E94B1
:100FB000610429833A834B835C836D837E838090B5
:100FC000920290909302A0909402B0909502698151
:100FD0007A81072E000C880B990B0E94B40AA50198
:100FE00094010E94980B6B017C016D817E81072E1C
:100FF000000C880B990B0E94B40AA50194010E9471
:10100000980B2B013C016B817C81072E000C880B17
:10101000990B0E94B40AA50194010E94980B6D8758
:101020007E878F87988BA70196010E94AD094B019F
:101030005C01A7019601C301B2010E94AD096B01D9
:101040007C012D853E854F855889C301B2010E94E0
:10105000AD092B013C0120E030E0A901C501B4013C
:101060000E940C0A87FF0AC02BED3FE049EC50E4D8
:10107000C501B4010E942E094B015C012BED3FE03C
:1010800049EC50E4C501B4010E948B0B181654F4CE
:101090002BED3FE049EC50E4C501B4010E942D095D
:1010A0004B015C0120E030E0A901C701B6010E94BC
:1010B0000C0A87FF0AC02BED3FE049EC50E4C70162
:1010C000B6010E942E096B017C012BED3FE049EC3B
:1010D00050E4C701B6010E948B0B181654F42BED97
:1010E0003FE049EC50E4C701B6010E942D096B01B5
:1010F0007C0120E030E0A901C301B2010E940C0A8A
:1011000087FF0AC02BED3FE049EC50E4C301B20178
:101110000E942E092B013C012BED3FE049EC50E4ED
:10112000C301B2010E948B0B181654F42BED3FE063
:1011300049EC50E4C301B2010E942D092B013C018E
:1011400020E030E044E353E4C501B4010E94980B71
:101150002BED3FE049E450E40E94110A42E00E9476
:101160008D0389E00E943C0120E030E044E353E439
:10117000C701B6010E94980B2BED3FE049E450E413
:101180000E94110A42E00E948D0389E00E943C0106
:1011900020E030E044E353E4C301B2010E94980B25
:1011A0002BED3FE049E450E40E94110A42E00E9426
:1011B0008D038AE00E943C010E9446024B015C01C3
:1011C00084E6C82ED12CE12CF12C0E944602DC01D1
:1011D000CB0188199909AA09BB09883E9340A1054A
:1011E000B10558F021E0C21AD108E108F10888EEF3
:1011F000880E83E0981EA11CB11CC114D104E10427
:10120000F10419F70E943C02D0CEA1E21A2EAA1BCB
:10121000BB1BFD010DC0AA1FBB1FEE1FFF1FA217A6
:10122000B307E407F50720F0A21BB30BE40BF50BA3
:10123000661F771F881F991F1A9469F7609570952C
:10124000809590959B01AC01BD01CF010895EE0FF3
:10125000FF1F0590F491E02D09945058BB27AA2751
:101260000E9445090C94510B0E94430B38F00E94D8
:101270004A0B20F039F49F3F19F426F40C94190B13
:101280000EF4E095E7FB0C94130BE92F0E94620B20
:1012900058F3BA17620773078407950720F079F4AB
:1012A000A6F50C94840B0EF4E0950B2EBA2FA02D0E
:1012B0000B01B90190010C01CA01A0011124FF2703
:1012C000591B99F0593F50F4503E68F11A16F040FE
:1012D000A22F232F342F4427585FF3CF46953795FD
:1012E0002795A795F0405395C9F77EF41F16BA0BC2
:1012F000620B730B840BBAF09150A1F0FF0FBB1F70
:10130000661F771F881FC2F70EC0BA0F621F731FB8
:10131000841F48F4879577956795B795F7959E3F15
:1013200008F0B0CF9395880F08F09927EE0F9795A6
:10133000879508950E94430B60F080E891E009F4DE
:101340009EEF0E944A0B28F040E851E071F45EEFF6
:101350000CC00C94190B0C94840BE92FE0780E94BC
:10136000620B40F3092E052AB1F326173707480709
:10137000590738F00E2E07F8E02569F0E025E06403
:101380000AC0EF6307F8009407FADB01B9019D0179
:10139000DC01CA01AD01EF930E94280A0E94510BA3
:1013A0000E94DD095F91552339F02BED3FE049E4C0
:1013B00050FD49EC0C942E090895DF93DD27B92FD9
:1013C000BF7740E85FE31616170648075B0718F477
:1013D000D92F0E94900B9F938F937F936F930E94BE
:1013E000050CE8E6F0E00E941C0B0E94510B2F91C7
:1013F0003F914F915F910E94AB0BDD2351F09058CC
:10140000A2EA2AED3FE049EC5FE3D0785D270E9435
:101410004509DF910C94510B0E94EF0A08F481E01A
:1014200008950E94250A0C94510B0E944A0B58F013
:101430000E94430B40F029F45F3F29F00C94130BFA
:1014400051110C94850B0C94190B0E94620B68F3DC
:101450009923B1F3552391F3951B550BBB27AA276D
:1014600062177307840738F09F5F5F4F220F331FA7
:10147000441FAA1FA9F335D00E2E3AF0E0E832D06F
:1014800091505040E695001CCAF72BD0FE2F29D072
:10149000660F771F881FBB1F261737074807AB0744
:1014A000B0E809F0BB0B802DBF01FF2793585F4FB9
:1014B0003AF09E3F510578F00C94130B0C94850B79
:1014C0005F3FE4F3983ED4F3869577956795B7959B
:1014D000F7959F5FC9F7880F911D9695879597F9A6
:1014E0000895E1E0660F771F881FBB1F621773071F
:1014F0008407BA0720F0621B730B840BBA0BEE1F34
:1015000088F7E09508950E946A0B88F09F5798F03D
:10151000B92F9927B751B0F0E1F0660F771F881FF8
:10152000991F1AF0BA95C9F714C0B13091F00E9412
:10153000840BB1E008950C94840B672F782F8827D3
:10154000B85F39F0B93FCCF3869577956795B39539
:10155000D9F73EF490958095709561957F4F8F4FA8
:101560009F4F0895E89409C097FB3EF490958095AD
:10157000709561957F4F8F4F9F4F9923A9F0F92F59
:1015800096E9BB279395F695879577956795B795D7
:10159000F111F8CFFAF4BB0F11F460FF1BC06F5FBD
:1015A0007F4F8F4F9F4F16C0882311F096E911C0CF
:1015B000772321F09EE8872F762F05C0662371F0F0
:1015C00096E8862F70E060E02AF09A95660F771F04
:1015D000881FDAF7880F9695879597F90895990FE0
:1015E0000008550FAA0BE0E8FEEF16161706E807ED
:1015F000F907C0F012161306E407F50798F0621B0E
:10160000730B840B950B39F40A2661F0232B242BE2
:10161000252B21F408950A2609F4A140A6958FEF01
:10162000811D811D089597F99F6780E870E060E053
:1016300008959FEF80EC0895DF93CF931F930F934E
:10164000FF92EF92DF927B018C01689406C0DA2E44
:10165000EF010E94AB0BFE01E894A5912591359115
:1016600045915591A6F3EF010E944509FE019701AE
:10167000A801DA9469F7DF90EF90FF900F911F9126
:10168000CF91DF91089500240A94161617061806C4
:101690000906089500240A94121613061406050676
:1016A0000895092E0394000C11F4882352F0BB0F07
:1016B00040F4BF2B11F460FF04C06F5F7F4F8F4F6A
:1016C0009F4F089557FD9058440F551F59F05F3FA5
:1016D00071F04795880F97FB991F61F09F3F79F054
:1016E00087950895121613061406551FF2CF4695D6
:1016F000F1DF08C0161617061806991FF1CF869558
:101700007105610508940895E894BB27662777273B
:10171000CB0197F908950E94EF0A08F48FEF08951E
:101720009B01AC0160E070E080E89FE30C94110A3B
:101730000E94AB0B0C94510B0E94430B38F00E949B
:101740004A0B20F0952311F00C94130B0C94190BF9
:1017500011240C94850B0E94620B70F3959FC1F3CA
:10176000950F50E0551F629FF001729FBB27F00D4F
:10177000B11D639FAA27F00DB11DAA1F649F6627A4
:10178000B00DA11D661F829F2227B00DA11D621FF3
:10179000739FB00DA11D621F839FA00D611D221FAD
:1017A000749F3327A00D611D231F849F600D211D91
:1017B000822F762F6A2F11249F5750409AF0F1F014
:1017C00088234AF0EE0FFF1FBB1F661F771F881F7D
:1017D00091505040A9F79E3F510580F00C94130B97
:1017E0000C94850B5F3FE4F3983ED4F38695779590
:1017F0006795B795F795E7959F5FC1F7FE2B880F23
:10180000911D9695879597F908959B01AC010C94CD
:10181000980B0E94EF0A880B990B089581E090E0E5
:0A182000F8940C94130CF894FFCF19
:10182A0000000000D3014F019C017A018E011A02C7
:10183A0000000000F102C1024701AD029E029D02B2
:0C184A006E616E00696E66006F766600CD
:00000001FF
